{
  "contractName": "Adoption",
  "abi": [
    {
      "constant": true,
      "inputs": [
        {
          "name": "",
          "type": "uint256"
        }
      ],
      "name": "adopters",
      "outputs": [
        {
          "name": "",
          "type": "address"
        }
      ],
      "payable": false,
      "stateMutability": "view",
      "type": "function",
      "signature": "0x43ae80d3"
    },
    {
      "constant": false,
      "inputs": [
        {
          "name": "petId",
          "type": "uint256"
        }
      ],
      "name": "adopt",
      "outputs": [
        {
          "name": "",
          "type": "uint256"
        }
      ],
      "payable": false,
      "stateMutability": "nonpayable",
      "type": "function",
      "signature": "0x8588b2c5"
    },
    {
      "constant": true,
      "inputs": [],
      "name": "getAdopters",
      "outputs": [
        {
          "name": "",
          "type": "address[16]"
        }
      ],
      "payable": false,
      "stateMutability": "view",
      "type": "function",
      "signature": "0x3de4eb17"
    }
  ],
  "bytecode": "0x608060405234801561001057600080fd5b506102f4806100206000396000f3fe608060405260043610610057576000357c0100000000000000000000000000000000000000000000000000000000900463ffffffff1680633de4eb171461005c57806343ae80d3146100af5780638588b2c51461012a575b600080fd5b34801561006857600080fd5b50610071610179565b6040518082601060200280838360005b8381101561009c578082015181840152602081019050610081565b5050505090500191505060405180910390f35b3480156100bb57600080fd5b506100e8600480360360208110156100d257600080fd5b81019080803590602001909291905050506101fa565b604051808273ffffffffffffffffffffffffffffffffffffffff1673ffffffffffffffffffffffffffffffffffffffff16815260200191505060405180910390f35b34801561013657600080fd5b506101636004803603602081101561014d57600080fd5b810190808035906020019092919050505061022f565b6040518082815260200191505060405180910390f35b6101816102a4565b60006010806020026040519081016040528092919082601080156101f0576020028201915b8160009054906101000a900473ffffffffffffffffffffffffffffffffffffffff1673ffffffffffffffffffffffffffffffffffffffff16815260200190600101908083116101a6575b5050505050905090565b60008160108110151561020957fe5b016000915054906101000a900473ffffffffffffffffffffffffffffffffffffffff1681565b60008082101580156102425750600f8211155b151561024d57600080fd5b3360008360108110151561025d57fe5b0160006101000a81548173ffffffffffffffffffffffffffffffffffffffff021916908373ffffffffffffffffffffffffffffffffffffffff160217905550819050919050565b6102006040519081016040528060109060208202803883398082019150509050509056fea165627a7a7230582054b6cf04eeaab44fbc7cf65266223ba1c9c2b03475a6321b4899c35b64366a360029",
  "source": "pragma solidity ^0.5.0;\n\nimport  \"./ERC721Full.sol\";\n\ncontract Adoption {\n    address[16] public adopters;\n\n    function adopt(uint petId) public returns (uint) {\n        require(petId >= 0 && petId <= 15);\n\n        adopters[petId] = msg.sender;\n\n        return petId;\n    }\n\n    function getAdopters() public view returns (address[16] memory) {\n        return adopters;\n    }\n}\n\n\n//Base---ERC721---\n//---contract---\n//Achievement 取得したもの\n//Target 実施した内容\n//Star　場の評価\n//HashData　別途記録したいデータのハッシュ\n//TokenDetail　内訳を示す別トークンへのリンク\n//Author　このトークンを認定した人や組織(ERC725ID管理と連携の計画)\n//\n\n//---Token---\n//From　\n//To　ERC721トークンで自動割当ERC721トークンで自動割当\n//Role　場における役割(学生とか、教授とか、部長とか)\n//Token_Star　個別の評価\n//\n\ncontract RightConnect_ERC721 is ERC721Full  {\n    string public Achievement;\n    string public Target;\n    uint[] public Star;\n    string public HashData;\n    address[] public TokenDetail;\n    address private Author;\n\n    mapping (uint256 => string) public Role;\n    mapping (uint256 => string) public Token_Star;\n\n    address[16] public adopters;\n\n    function adopt(uint petId) public returns (uint) {\n        require(petId >= 0 && petId <= 15);\n\n        adopters[petId] = msg.sender;\n\n        return petId;\n    }\n\n    function getAdopters() public view returns (address[16] memory) {\n        return adopters;\n    }\n\n\n\n    function get_Role(uint256 tokenID) public view returns(string memory){\n        string memory role  = Role[tokenID];\n        return role;\n    }\n\n    function set_Role(uint256 tokenID , string memory role) public {\n        if (is_authorized_user(msg.sender)) Role[tokenID]  = role;\n    }\n\n\n    function get_Token_Star(uint256 tokenID) public view returns(string memory){\n        string memory tstar  = Token_Star[tokenID];\n        return tstar;\n    }\n\n    function set_Token_Star(uint256 tokenID , string memory token_star) public {\n        if (is_authorized_user(msg.sender)) Token_Star[tokenID]  = token_star;\n    }\n\n\n    function set_Achievement(string memory a)  public  {\n        if (is_authorized_user(msg.sender)) Achievement = a;\n    }\n    \n    function set_Target(string memory t)  public  {\n        if (is_authorized_user(msg.sender)) Target = t;\n    }\n\n       function set_Star(uint s)  public  {\n        if ( 1 <= s && s <= 5  ) Star.push(s);\n    } \n\n       function set_HashData(string memory h)  public  {\n        HashData = h;\n    } \n    \n       function set_TokenDetail(address token_address)  public  {\n        TokenDetail.push(token_address);\n    } \n\n\n       function get_Achievement()  public view returns (string memory) {\n        return Achievement;\n    } \n\n       function get_Target()  public  view returns (string memory) {\n        return Target;\n    } \n\n\n    function get_Star()  public view returns (uint) {\n        uint sum = 0;\n        for (uint i = 0; i < Star.length; i++){\n            sum += Star[i];\n        }\n        return sum/Star.length;\n    }\n    \n\n       function get_HashData()  public view returns (string memory) {\n        return HashData;\n    } \n\n       function get_TokenDetail(uint256 number)  public view returns (address) {\n        return TokenDetail[number];\n    } \n\n       function get_Author()  public view returns (address) {\n        return Author;\n    } \n    \n      function is_authorized_user(address) public view returns (bool){\n          //ToDo:ERC725によって正当性が認められているユーザのみがtrueになる\n          return true;\n      }\n\n\n\n    constructor(\n        string memory name, \n        string memory symbol,\n        address author\n    )\n        ERC721Full(name, symbol)\n        public\n    {\n//        _mint(msg.sender, tokenId);\n//        _setTokenURI(tokenId, tokenURI);\n        if (is_authorized_user(author)) Author = author;\n        _mint(0xe3EeE18A530acc43D2F30946a5FF7E6eB9732f10, 1);\n        _mint(0xd986d7E95663d5dE8CACda286431DB4313567c4c , 2);\n        _mint(0xE35B827177398D8d2FBA304d9cF53bc8fC1573B7 , 3);\n    }\n}\n",
  "sourcePath": "/Users/matsuokadaisuke/Desktop/2019Hackathon/pet-shop/contracts/Adoption.sol",
  "compiler": {
    "name": "solc",
    "version": "0.5.0+commit.1d4f565a.Emscripten.clang"
  },
  "schemaVersion": "3.0.2",
  "updatedAt": "2019-02-17T02:57:36.686Z",
  "devdoc": {
    "methods": {}
  },
  "userdoc": {
    "methods": {}
  }
}