{
  "contractName": "ERC721Full",
  "abi": [
    {
      "constant": true,
      "inputs": [
        {
          "name": "interfaceId",
          "type": "bytes4"
        }
      ],
      "name": "supportsInterface",
      "outputs": [
        {
          "name": "",
          "type": "bool"
        }
      ],
      "payable": false,
      "stateMutability": "view",
      "type": "function"
    },
    {
      "constant": true,
      "inputs": [],
      "name": "name",
      "outputs": [
        {
          "name": "",
          "type": "string"
        }
      ],
      "payable": false,
      "stateMutability": "view",
      "type": "function"
    },
    {
      "constant": true,
      "inputs": [
        {
          "name": "tokenId",
          "type": "uint256"
        }
      ],
      "name": "getApproved",
      "outputs": [
        {
          "name": "",
          "type": "address"
        }
      ],
      "payable": false,
      "stateMutability": "view",
      "type": "function"
    },
    {
      "constant": false,
      "inputs": [
        {
          "name": "to",
          "type": "address"
        },
        {
          "name": "tokenId",
          "type": "uint256"
        }
      ],
      "name": "approve",
      "outputs": [],
      "payable": false,
      "stateMutability": "nonpayable",
      "type": "function"
    },
    {
      "constant": true,
      "inputs": [],
      "name": "totalSupply",
      "outputs": [
        {
          "name": "",
          "type": "uint256"
        }
      ],
      "payable": false,
      "stateMutability": "view",
      "type": "function"
    },
    {
      "constant": false,
      "inputs": [
        {
          "name": "from",
          "type": "address"
        },
        {
          "name": "to",
          "type": "address"
        },
        {
          "name": "tokenId",
          "type": "uint256"
        }
      ],
      "name": "transferFrom",
      "outputs": [],
      "payable": false,
      "stateMutability": "nonpayable",
      "type": "function"
    },
    {
      "constant": true,
      "inputs": [
        {
          "name": "owner",
          "type": "address"
        },
        {
          "name": "index",
          "type": "uint256"
        }
      ],
      "name": "tokenOfOwnerByIndex",
      "outputs": [
        {
          "name": "",
          "type": "uint256"
        }
      ],
      "payable": false,
      "stateMutability": "view",
      "type": "function"
    },
    {
      "constant": false,
      "inputs": [
        {
          "name": "from",
          "type": "address"
        },
        {
          "name": "to",
          "type": "address"
        },
        {
          "name": "tokenId",
          "type": "uint256"
        }
      ],
      "name": "safeTransferFrom",
      "outputs": [],
      "payable": false,
      "stateMutability": "nonpayable",
      "type": "function"
    },
    {
      "constant": true,
      "inputs": [
        {
          "name": "index",
          "type": "uint256"
        }
      ],
      "name": "tokenByIndex",
      "outputs": [
        {
          "name": "",
          "type": "uint256"
        }
      ],
      "payable": false,
      "stateMutability": "view",
      "type": "function"
    },
    {
      "constant": true,
      "inputs": [
        {
          "name": "tokenId",
          "type": "uint256"
        }
      ],
      "name": "ownerOf",
      "outputs": [
        {
          "name": "",
          "type": "address"
        }
      ],
      "payable": false,
      "stateMutability": "view",
      "type": "function"
    },
    {
      "constant": true,
      "inputs": [
        {
          "name": "owner",
          "type": "address"
        }
      ],
      "name": "balanceOf",
      "outputs": [
        {
          "name": "",
          "type": "uint256"
        }
      ],
      "payable": false,
      "stateMutability": "view",
      "type": "function"
    },
    {
      "constant": true,
      "inputs": [],
      "name": "symbol",
      "outputs": [
        {
          "name": "",
          "type": "string"
        }
      ],
      "payable": false,
      "stateMutability": "view",
      "type": "function"
    },
    {
      "constant": false,
      "inputs": [
        {
          "name": "to",
          "type": "address"
        },
        {
          "name": "approved",
          "type": "bool"
        }
      ],
      "name": "setApprovalForAll",
      "outputs": [],
      "payable": false,
      "stateMutability": "nonpayable",
      "type": "function"
    },
    {
      "constant": false,
      "inputs": [
        {
          "name": "from",
          "type": "address"
        },
        {
          "name": "to",
          "type": "address"
        },
        {
          "name": "tokenId",
          "type": "uint256"
        },
        {
          "name": "_data",
          "type": "bytes"
        }
      ],
      "name": "safeTransferFrom",
      "outputs": [],
      "payable": false,
      "stateMutability": "nonpayable",
      "type": "function"
    },
    {
      "constant": true,
      "inputs": [
        {
          "name": "tokenId",
          "type": "uint256"
        }
      ],
      "name": "tokenURI",
      "outputs": [
        {
          "name": "",
          "type": "string"
        }
      ],
      "payable": false,
      "stateMutability": "view",
      "type": "function"
    },
    {
      "constant": true,
      "inputs": [
        {
          "name": "owner",
          "type": "address"
        },
        {
          "name": "operator",
          "type": "address"
        }
      ],
      "name": "isApprovedForAll",
      "outputs": [
        {
          "name": "",
          "type": "bool"
        }
      ],
      "payable": false,
      "stateMutability": "view",
      "type": "function"
    },
    {
      "inputs": [
        {
          "name": "name",
          "type": "string"
        },
        {
          "name": "symbol",
          "type": "string"
        }
      ],
      "payable": false,
      "stateMutability": "nonpayable",
      "type": "constructor"
    },
    {
      "anonymous": false,
      "inputs": [
        {
          "indexed": true,
          "name": "from",
          "type": "address"
        },
        {
          "indexed": true,
          "name": "to",
          "type": "address"
        },
        {
          "indexed": true,
          "name": "tokenId",
          "type": "uint256"
        }
      ],
      "name": "Transfer",
      "type": "event"
    },
    {
      "anonymous": false,
      "inputs": [
        {
          "indexed": true,
          "name": "owner",
          "type": "address"
        },
        {
          "indexed": true,
          "name": "approved",
          "type": "address"
        },
        {
          "indexed": true,
          "name": "tokenId",
          "type": "uint256"
        }
      ],
      "name": "Approval",
      "type": "event"
    },
    {
      "anonymous": false,
      "inputs": [
        {
          "indexed": true,
          "name": "owner",
          "type": "address"
        },
        {
          "indexed": true,
          "name": "operator",
          "type": "address"
        },
        {
          "indexed": false,
          "name": "approved",
          "type": "bool"
        }
      ],
      "name": "ApprovalForAll",
      "type": "event"
    }
  ],
  "bytecode": "0x60806040523480156200001157600080fd5b5060405162001d9238038062001d92833981018060405260408110156200003757600080fd5b8101908080516401000000008111156200005057600080fd5b828101905060208101848111156200006757600080fd5b81518560018202830111640100000000821117156200008557600080fd5b50509291906020018051640100000000811115620000a257600080fd5b82810190506020810184811115620000b957600080fd5b8151856001820283011164010000000082111715620000d757600080fd5b505092919050505081816200011e6301ffc9a77c01000000000000000000000000000000000000000000000000000000000262000211640100000000026401000000009004565b6200015b6380ac58cd7c01000000000000000000000000000000000000000000000000000000000262000211640100000000026401000000009004565b6200019863780e9d637c01000000000000000000000000000000000000000000000000000000000262000211640100000000026401000000009004565b8160099080519060200190620001b0929190620002cf565b5080600a9080519060200190620001c9929190620002cf565b5062000207635b5e139f7c01000000000000000000000000000000000000000000000000000000000262000211640100000000026401000000009004565b505050506200037e565b63ffffffff7c010000000000000000000000000000000000000000000000000000000002817bffffffffffffffffffffffffffffffffffffffffffffffffffffffff1916141515156200026357600080fd5b6001600080837bffffffffffffffffffffffffffffffffffffffffffffffffffffffff19167bffffffffffffffffffffffffffffffffffffffffffffffffffffffff1916815260200190815260200160002060006101000a81548160ff02191690831515021790555050565b828054600181600116156101000203166002900490600052602060002090601f016020900481019282601f106200031257805160ff191683800117855562000343565b8280016001018555821562000343579182015b828111156200034257825182559160200191906001019062000325565b5b50905062000352919062000356565b5090565b6200037b91905b80821115620003775760008160009055506001016200035d565b5090565b90565b611a04806200038e6000396000f3fe6080604052600436106100e6576000357c0100000000000000000000000000000000000000000000000000000000900463ffffffff16806301ffc9a7146100eb57806306fdde031461015d578063081812fc146101ed578063095ea7b31461026857806318160ddd146102c357806323b872dd146102ee5780632f745c591461036957806342842e0e146103d85780634f6ccce7146104535780636352211e146104a257806370a082311461051d57806395d89b4114610582578063a22cb46514610612578063b88d4fde1461066f578063c87b56dd14610781578063e985e9c514610835575b600080fd5b3480156100f757600080fd5b506101436004803603602081101561010e57600080fd5b8101908080357bffffffffffffffffffffffffffffffffffffffffffffffffffffffff191690602001909291905050506108be565b604051808215151515815260200191505060405180910390f35b34801561016957600080fd5b50610172610925565b6040518080602001828103825283818151815260200191508051906020019080838360005b838110156101b2578082015181840152602081019050610197565b50505050905090810190601f1680156101df5780820380516001836020036101000a031916815260200191505b509250505060405180910390f35b3480156101f957600080fd5b506102266004803603602081101561021057600080fd5b81019080803590602001909291905050506109c7565b604051808273ffffffffffffffffffffffffffffffffffffffff1673ffffffffffffffffffffffffffffffffffffffff16815260200191505060405180910390f35b34801561027457600080fd5b506102c16004803603604081101561028b57600080fd5b81019080803573ffffffffffffffffffffffffffffffffffffffff16906020019092919080359060200190929190505050610a18565b005b3480156102cf57600080fd5b506102d8610b5d565b6040518082815260200191505060405180910390f35b3480156102fa57600080fd5b506103676004803603606081101561031157600080fd5b81019080803573ffffffffffffffffffffffffffffffffffffffff169060200190929190803573ffffffffffffffffffffffffffffffffffffffff16906020019092919080359060200190929190505050610b6a565b005b34801561037557600080fd5b506103c26004803603604081101561038c57600080fd5b81019080803573ffffffffffffffffffffffffffffffffffffffff16906020019092919080359060200190929190505050610b8f565b6040518082815260200191505060405180910390f35b3480156103e457600080fd5b50610451600480360360608110156103fb57600080fd5b81019080803573ffffffffffffffffffffffffffffffffffffffff169060200190929190803573ffffffffffffffffffffffffffffffffffffffff16906020019092919080359060200190929190505050610c06565b005b34801561045f57600080fd5b5061048c6004803603602081101561047657600080fd5b8101908080359060200190929190505050610c27565b6040518082815260200191505060405180910390f35b3480156104ae57600080fd5b506104db600480360360208110156104c557600080fd5b8101908080359060200190929190505050610c5f565b604051808273ffffffffffffffffffffffffffffffffffffffff1673ffffffffffffffffffffffffffffffffffffffff16815260200191505060405180910390f35b34801561052957600080fd5b5061056c6004803603602081101561054057600080fd5b81019080803573ffffffffffffffffffffffffffffffffffffffff169060200190929190505050610cdd565b6040518082815260200191505060405180910390f35b34801561058e57600080fd5b50610597610d68565b6040518080602001828103825283818151815260200191508051906020019080838360005b838110156105d75780820151818401526020810190506105bc565b50505050905090810190601f1680156106045780820380516001836020036101000a031916815260200191505b509250505060405180910390f35b34801561061e57600080fd5b5061066d6004803603604081101561063557600080fd5b81019080803573ffffffffffffffffffffffffffffffffffffffff169060200190929190803515159060200190929190505050610e0a565b005b34801561067b57600080fd5b5061077f6004803603608081101561069257600080fd5b81019080803573ffffffffffffffffffffffffffffffffffffffff169060200190929190803573ffffffffffffffffffffffffffffffffffffffff16906020019092919080359060200190929190803590602001906401000000008111156106f957600080fd5b82018360208201111561070b57600080fd5b8035906020019184600183028401116401000000008311171561072d57600080fd5b91908080601f016020809104026020016040519081016040528093929190818152602001838380828437600081840152601f19601f820116905080830192505050505050509192919290505050610f46565b005b34801561078d57600080fd5b506107ba600480360360208110156107a457600080fd5b8101908080359060200190929190505050610f6e565b6040518080602001828103825283818151815260200191508051906020019080838360005b838110156107fa5780820151818401526020810190506107df565b50505050905090810190601f1680156108275780820380516001836020036101000a031916815260200191505b509250505060405180910390f35b34801561084157600080fd5b506108a46004803603604081101561085857600080fd5b81019080803573ffffffffffffffffffffffffffffffffffffffff169060200190929190803573ffffffffffffffffffffffffffffffffffffffff169060200190929190505050611037565b604051808215151515815260200191505060405180910390f35b6000806000837bffffffffffffffffffffffffffffffffffffffffffffffffffffffff19167bffffffffffffffffffffffffffffffffffffffffffffffffffffffff1916815260200190815260200160002060009054906101000a900460ff169050919050565b606060098054600181600116156101000203166002900480601f0160208091040260200160405190810160405280929190818152602001828054600181600116156101000203166002900480156109bd5780601f10610992576101008083540402835291602001916109bd565b820191906000526020600020905b8154815290600101906020018083116109a057829003601f168201915b5050505050905090565b60006109d2826110cb565b15156109dd57600080fd5b6002600083815260200190815260200160002060009054906101000a900473ffffffffffffffffffffffffffffffffffffffff169050919050565b6000610a2382610c5f565b90508073ffffffffffffffffffffffffffffffffffffffff168373ffffffffffffffffffffffffffffffffffffffff1614151515610a6057600080fd5b8073ffffffffffffffffffffffffffffffffffffffff163373ffffffffffffffffffffffffffffffffffffffff161480610aa05750610a9f8133611037565b5b1515610aab57600080fd5b826002600084815260200190815260200160002060006101000a81548173ffffffffffffffffffffffffffffffffffffffff021916908373ffffffffffffffffffffffffffffffffffffffff160217905550818373ffffffffffffffffffffffffffffffffffffffff168273ffffffffffffffffffffffffffffffffffffffff167f8c5be1e5ebec7d5bd14f71427d1e84f3dd0314c0f7b2291e5b200ac8c7c3b92560405160405180910390a4505050565b6000600780549050905090565b610b74338261113d565b1515610b7f57600080fd5b610b8a8383836111d2565b505050565b6000610b9a83610cdd565b82101515610ba757600080fd5b600560008473ffffffffffffffffffffffffffffffffffffffff1673ffffffffffffffffffffffffffffffffffffffff16815260200190815260200160002082815481101515610bf357fe5b9060005260206000200154905092915050565b610c228383836020604051908101604052806000815250610f46565b505050565b6000610c31610b5d565b82101515610c3e57600080fd5b600782815481101515610c4d57fe5b90600052602060002001549050919050565b6000806001600084815260200190815260200160002060009054906101000a900473ffffffffffffffffffffffffffffffffffffffff169050600073ffffffffffffffffffffffffffffffffffffffff168173ffffffffffffffffffffffffffffffffffffffff1614151515610cd457600080fd5b80915050919050565b60008073ffffffffffffffffffffffffffffffffffffffff168273ffffffffffffffffffffffffffffffffffffffff1614151515610d1a57600080fd5b610d61600360008473ffffffffffffffffffffffffffffffffffffffff1673ffffffffffffffffffffffffffffffffffffffff1681526020019081526020016000206111f6565b9050919050565b6060600a8054600181600116156101000203166002900480601f016020809104026020016040519081016040528092919081815260200182805460018160011615610100020316600290048015610e005780601f10610dd557610100808354040283529160200191610e00565b820191906000526020600020905b815481529060010190602001808311610de357829003601f168201915b5050505050905090565b3373ffffffffffffffffffffffffffffffffffffffff168273ffffffffffffffffffffffffffffffffffffffff1614151515610e4557600080fd5b80600460003373ffffffffffffffffffffffffffffffffffffffff1673ffffffffffffffffffffffffffffffffffffffff16815260200190815260200160002060008473ffffffffffffffffffffffffffffffffffffffff1673ffffffffffffffffffffffffffffffffffffffff16815260200190815260200160002060006101000a81548160ff0219169083151502179055508173ffffffffffffffffffffffffffffffffffffffff163373ffffffffffffffffffffffffffffffffffffffff167f17307eab39ab6107e8899845ad3d59bd9653f200f220920489ca2b5937696c3183604051808215151515815260200191505060405180910390a35050565b610f51848484610b6a565b610f5d84848484611204565b1515610f6857600080fd5b50505050565b6060610f79826110cb565b1515610f8457600080fd5b600b60008381526020019081526020016000208054600181600116156101000203166002900480601f01602080910402602001604051908101604052809291908181526020018280546001816001161561010002031660029004801561102b5780601f106110005761010080835404028352916020019161102b565b820191906000526020600020905b81548152906001019060200180831161100e57829003601f168201915b50505050509050919050565b6000600460008473ffffffffffffffffffffffffffffffffffffffff1673ffffffffffffffffffffffffffffffffffffffff16815260200190815260200160002060008373ffffffffffffffffffffffffffffffffffffffff1673ffffffffffffffffffffffffffffffffffffffff16815260200190815260200160002060009054906101000a900460ff16905092915050565b6000806001600084815260200190815260200160002060009054906101000a900473ffffffffffffffffffffffffffffffffffffffff169050600073ffffffffffffffffffffffffffffffffffffffff168173ffffffffffffffffffffffffffffffffffffffff161415915050919050565b60008061114983610c5f565b90508073ffffffffffffffffffffffffffffffffffffffff168473ffffffffffffffffffffffffffffffffffffffff1614806111b857508373ffffffffffffffffffffffffffffffffffffffff166111a0846109c7565b73ffffffffffffffffffffffffffffffffffffffff16145b806111c957506111c88185611037565b5b91505092915050565b6111dd838383611427565b6111e783826115ee565b6111f18282611792565b505050565b600081600001549050919050565b60006112258473ffffffffffffffffffffffffffffffffffffffff16611859565b1515611234576001905061141f565b60008473ffffffffffffffffffffffffffffffffffffffff1663150b7a02338887876040518563ffffffff167c0100000000000000000000000000000000000000000000000000000000028152600401808573ffffffffffffffffffffffffffffffffffffffff1673ffffffffffffffffffffffffffffffffffffffff1681526020018473ffffffffffffffffffffffffffffffffffffffff1673ffffffffffffffffffffffffffffffffffffffff16815260200183815260200180602001828103825283818151815260200191508051906020019080838360005b8381101561132b578082015181840152602081019050611310565b50505050905090810190601f1680156113585780820380516001836020036101000a031916815260200191505b5095505050505050602060405180830381600087803b15801561137a57600080fd5b505af115801561138e573d6000803e3d6000fd5b505050506040513d60208110156113a457600080fd5b8101908080519060200190929190505050905063150b7a027c0100000000000000000000000000000000000000000000000000000000027bffffffffffffffffffffffffffffffffffffffffffffffffffffffff1916817bffffffffffffffffffffffffffffffffffffffffffffffffffffffff1916149150505b949350505050565b8273ffffffffffffffffffffffffffffffffffffffff1661144782610c5f565b73ffffffffffffffffffffffffffffffffffffffff1614151561146957600080fd5b600073ffffffffffffffffffffffffffffffffffffffff168273ffffffffffffffffffffffffffffffffffffffff16141515156114a557600080fd5b6114ae8161186c565b6114f5600360008573ffffffffffffffffffffffffffffffffffffffff1673ffffffffffffffffffffffffffffffffffffffff16815260200190815260200160002061192c565b61153c600360008473ffffffffffffffffffffffffffffffffffffffff1673ffffffffffffffffffffffffffffffffffffffff16815260200190815260200160002061194f565b816001600083815260200190815260200160002060006101000a81548173ffffffffffffffffffffffffffffffffffffffff021916908373ffffffffffffffffffffffffffffffffffffffff160217905550808273ffffffffffffffffffffffffffffffffffffffff168473ffffffffffffffffffffffffffffffffffffffff167fddf252ad1be2c89b69c2b068fc378daa952ba7f163c4a11628f55a4df523b3ef60405160405180910390a4505050565b60006116466001600560008673ffffffffffffffffffffffffffffffffffffffff1673ffffffffffffffffffffffffffffffffffffffff1681526020019081526020016000208054905061196590919063ffffffff16565b90506000600660008481526020019081526020016000205490508181141515611739576000600560008673ffffffffffffffffffffffffffffffffffffffff1673ffffffffffffffffffffffffffffffffffffffff168152602001908152602001600020838154811015156116b757fe5b9060005260206000200154905080600560008773ffffffffffffffffffffffffffffffffffffffff1673ffffffffffffffffffffffffffffffffffffffff1681526020019081526020016000208381548110151561171157fe5b9060005260206000200181905550816006600083815260200190815260200160002081905550505b600560008573ffffffffffffffffffffffffffffffffffffffff1673ffffffffffffffffffffffffffffffffffffffff16815260200190815260200160002080548091906001900361178b9190611987565b5050505050565b600560008373ffffffffffffffffffffffffffffffffffffffff1673ffffffffffffffffffffffffffffffffffffffff168152602001908152602001600020805490506006600083815260200190815260200160002081905550600560008373ffffffffffffffffffffffffffffffffffffffff1673ffffffffffffffffffffffffffffffffffffffff1681526020019081526020016000208190806001815401808255809150509060018203906000526020600020016000909192909190915055505050565b600080823b905060008111915050919050565b600073ffffffffffffffffffffffffffffffffffffffff166002600083815260200190815260200160002060009054906101000a900473ffffffffffffffffffffffffffffffffffffffff1673ffffffffffffffffffffffffffffffffffffffff161415156119295760006002600083815260200190815260200160002060006101000a81548173ffffffffffffffffffffffffffffffffffffffff021916908373ffffffffffffffffffffffffffffffffffffffff1602179055505b50565b6119446001826000015461196590919063ffffffff16565b816000018190555050565b6001816000016000828254019250508190555050565b600082821115151561197657600080fd5b600082840390508091505092915050565b8154818355818111156119ae578183600052602060002091820191016119ad91906119b3565b5b505050565b6119d591905b808211156119d15760008160009055506001016119b9565b5090565b9056fea165627a7a7230582026d935622c2893df538024219a1c68bddbe0e672c147dd937938094f3890e4440029",
  "source": "pragma solidity ^0.5.0;\r\n\r\nimport \"./ERC721.sol\";\r\nimport \"./ERC721Enumerable.sol\";\r\nimport \"./ERC721Metadata.sol\";\r\n\r\n/**\r\n * @title Full ERC721 Token\r\n * This implementation includes all the required and some optional functionality of the ERC721 standard\r\n * Moreover, it includes approve all functionality using operator terminology\r\n * @dev see https://github.com/ethereum/EIPs/blob/master/EIPS/eip-721.md\r\n */\r\ncontract ERC721Full is ERC721, ERC721Enumerable, ERC721Metadata {\r\n    constructor (string memory name, string memory symbol) public ERC721Metadata(name, symbol) {\r\n        // solhint-disable-previous-line no-empty-blocks\r\n    }\r\n}",
  "sourcePath": "/Users/matsuokadaisuke/Desktop/2019Hackathon/RightConnect/contracts/ERC721Full.sol",
  "compiler": {
    "name": "solc",
    "version": "0.5.0+commit.1d4f565a.Emscripten.clang"
  },
  "schemaVersion": "3.0.2",
  "updatedAt": "2019-02-17T02:53:27.619Z",
  "devdoc": {
    "details": "see https://github.com/ethereum/EIPs/blob/master/EIPS/eip-721.md\r",
    "methods": {
      "approve(address,uint256)": {
        "details": "Approves another address to transfer the given token ID\r The zero address indicates there is no approved address.\r There can only be one approved address per token at a given time.\r Can only be called by the token owner or an approved operator.\r",
        "params": {
          "to": "address to be approved for the given token ID\r",
          "tokenId": "uint256 ID of the token to be approved\r"
        }
      },
      "balanceOf(address)": {
        "details": "Gets the balance of the specified address\r",
        "params": {
          "owner": "address to query the balance of\r"
        },
        "return": "uint256 representing the amount owned by the passed address\r"
      },
      "getApproved(uint256)": {
        "details": "Gets the approved address for a token ID, or zero if no address set\r Reverts if the token ID does not exist.\r",
        "params": {
          "tokenId": "uint256 ID of the token to query the approval of\r"
        },
        "return": "address currently approved for the given token ID\r"
      },
      "isApprovedForAll(address,address)": {
        "details": "Tells whether an operator is approved by a given owner\r",
        "params": {
          "operator": "operator address which you want to query the approval of\r",
          "owner": "owner address which you want to query the approval of\r"
        },
        "return": "bool whether the given operator is approved by the given owner\r"
      },
      "name()": {
        "details": "Gets the token name\r",
        "return": "string representing the token name\r"
      },
      "ownerOf(uint256)": {
        "details": "Gets the owner of the specified token ID\r",
        "params": {
          "tokenId": "uint256 ID of the token to query the owner of\r"
        },
        "return": "address currently marked as the owner of the given token ID\r"
      },
      "safeTransferFrom(address,address,uint256)": {
        "details": "Safely transfers the ownership of a given token ID to another address\r If the target address is a contract, it must implement `onERC721Received`,\r which is called upon a safe transfer, and return the magic value\r `bytes4(keccak256(\"onERC721Received(address,address,uint256,bytes)\"))`; otherwise,\r the transfer is reverted.\r Requires the msg.sender to be the owner, approved, or operator\r",
        "params": {
          "from": "current owner of the token\r",
          "to": "address to receive the ownership of the given token ID\r",
          "tokenId": "uint256 ID of the token to be transferred\r"
        }
      },
      "safeTransferFrom(address,address,uint256,bytes)": {
        "details": "Safely transfers the ownership of a given token ID to another address\r If the target address is a contract, it must implement `onERC721Received`,\r which is called upon a safe transfer, and return the magic value\r `bytes4(keccak256(\"onERC721Received(address,address,uint256,bytes)\"))`; otherwise,\r the transfer is reverted.\r Requires the msg.sender to be the owner, approved, or operator\r",
        "params": {
          "_data": "bytes data to send along with a safe transfer check\r",
          "from": "current owner of the token\r",
          "to": "address to receive the ownership of the given token ID\r",
          "tokenId": "uint256 ID of the token to be transferred\r"
        }
      },
      "setApprovalForAll(address,bool)": {
        "details": "Sets or unsets the approval of a given operator\r An operator is allowed to transfer all tokens of the sender on their behalf\r",
        "params": {
          "approved": "representing the status of the approval to be set\r",
          "to": "operator address to set the approval\r"
        }
      },
      "supportsInterface(bytes4)": {
        "details": "implement supportsInterface(bytes4) using a lookup table\r"
      },
      "symbol()": {
        "details": "Gets the token symbol\r",
        "return": "string representing the token symbol\r"
      },
      "tokenByIndex(uint256)": {
        "details": "Gets the token ID at a given index of all the tokens in this contract\r Reverts if the index is greater or equal to the total number of tokens\r",
        "params": {
          "index": "uint256 representing the index to be accessed of the tokens list\r"
        },
        "return": "uint256 token ID at the given index of the tokens list\r"
      },
      "tokenOfOwnerByIndex(address,uint256)": {
        "details": "Gets the token ID at a given index of the tokens list of the requested owner\r",
        "params": {
          "index": "uint256 representing the index to be accessed of the requested tokens list\r",
          "owner": "address owning the tokens list to be accessed\r"
        },
        "return": "uint256 token ID at the given index of the tokens list owned by the requested address\r"
      },
      "tokenURI(uint256)": {
        "details": "Returns an URI for a given token ID\r Throws if the token ID does not exist. May return an empty string.\r",
        "params": {
          "tokenId": "uint256 ID of the token to query\r"
        }
      },
      "totalSupply()": {
        "details": "Gets the total amount of tokens stored by the contract\r",
        "return": "uint256 representing the total amount of tokens\r"
      },
      "transferFrom(address,address,uint256)": {
        "details": "Transfers the ownership of a given token ID to another address\r Usage of this method is discouraged, use `safeTransferFrom` whenever possible\r Requires the msg.sender to be the owner, approved, or operator\r",
        "params": {
          "from": "current owner of the token\r",
          "to": "address to receive the ownership of the given token ID\r",
          "tokenId": "uint256 ID of the token to be transferred\r"
        }
      }
    },
    "title": "Full ERC721 Token\r This implementation includes all the required and some optional functionality of the ERC721 standard\r Moreover, it includes approve all functionality using operator terminology\r"
  },
  "userdoc": {
    "methods": {}
  }
}