{
  "contractName": "RightConnect_ERC721",
  "abi": [
    {
      "constant": true,
      "inputs": [
        {
          "name": "interfaceId",
          "type": "bytes4"
        }
      ],
      "name": "supportsInterface",
      "outputs": [
        {
          "name": "",
          "type": "bool"
        }
      ],
      "payable": false,
      "stateMutability": "view",
      "type": "function"
    },
    {
      "constant": true,
      "inputs": [],
      "name": "name",
      "outputs": [
        {
          "name": "",
          "type": "string"
        }
      ],
      "payable": false,
      "stateMutability": "view",
      "type": "function"
    },
    {
      "constant": true,
      "inputs": [
        {
          "name": "tokenId",
          "type": "uint256"
        }
      ],
      "name": "getApproved",
      "outputs": [
        {
          "name": "",
          "type": "address"
        }
      ],
      "payable": false,
      "stateMutability": "view",
      "type": "function"
    },
    {
      "constant": false,
      "inputs": [
        {
          "name": "to",
          "type": "address"
        },
        {
          "name": "tokenId",
          "type": "uint256"
        }
      ],
      "name": "approve",
      "outputs": [],
      "payable": false,
      "stateMutability": "nonpayable",
      "type": "function"
    },
    {
      "constant": true,
      "inputs": [],
      "name": "totalSupply",
      "outputs": [
        {
          "name": "",
          "type": "uint256"
        }
      ],
      "payable": false,
      "stateMutability": "view",
      "type": "function"
    },
    {
      "constant": true,
      "inputs": [
        {
          "name": "",
          "type": "uint256"
        }
      ],
      "name": "Token_Star",
      "outputs": [
        {
          "name": "",
          "type": "string"
        }
      ],
      "payable": false,
      "stateMutability": "view",
      "type": "function"
    },
    {
      "constant": false,
      "inputs": [
        {
          "name": "from",
          "type": "address"
        },
        {
          "name": "to",
          "type": "address"
        },
        {
          "name": "tokenId",
          "type": "uint256"
        }
      ],
      "name": "transferFrom",
      "outputs": [],
      "payable": false,
      "stateMutability": "nonpayable",
      "type": "function"
    },
    {
      "constant": true,
      "inputs": [
        {
          "name": "owner",
          "type": "address"
        },
        {
          "name": "index",
          "type": "uint256"
        }
      ],
      "name": "tokenOfOwnerByIndex",
      "outputs": [
        {
          "name": "",
          "type": "uint256"
        }
      ],
      "payable": false,
      "stateMutability": "view",
      "type": "function"
    },
    {
      "constant": true,
      "inputs": [],
      "name": "Achievement",
      "outputs": [
        {
          "name": "",
          "type": "string"
        }
      ],
      "payable": false,
      "stateMutability": "view",
      "type": "function"
    },
    {
      "constant": false,
      "inputs": [
        {
          "name": "from",
          "type": "address"
        },
        {
          "name": "to",
          "type": "address"
        },
        {
          "name": "tokenId",
          "type": "uint256"
        }
      ],
      "name": "safeTransferFrom",
      "outputs": [],
      "payable": false,
      "stateMutability": "nonpayable",
      "type": "function"
    },
    {
      "constant": true,
      "inputs": [
        {
          "name": "",
          "type": "uint256"
        }
      ],
      "name": "adopters",
      "outputs": [
        {
          "name": "",
          "type": "address"
        }
      ],
      "payable": false,
      "stateMutability": "view",
      "type": "function"
    },
    {
      "constant": true,
      "inputs": [
        {
          "name": "index",
          "type": "uint256"
        }
      ],
      "name": "tokenByIndex",
      "outputs": [
        {
          "name": "",
          "type": "uint256"
        }
      ],
      "payable": false,
      "stateMutability": "view",
      "type": "function"
    },
    {
      "constant": true,
      "inputs": [],
      "name": "Target",
      "outputs": [
        {
          "name": "",
          "type": "string"
        }
      ],
      "payable": false,
      "stateMutability": "view",
      "type": "function"
    },
    {
      "constant": true,
      "inputs": [
        {
          "name": "tokenId",
          "type": "uint256"
        }
      ],
      "name": "ownerOf",
      "outputs": [
        {
          "name": "",
          "type": "address"
        }
      ],
      "payable": false,
      "stateMutability": "view",
      "type": "function"
    },
    {
      "constant": true,
      "inputs": [
        {
          "name": "owner",
          "type": "address"
        }
      ],
      "name": "balanceOf",
      "outputs": [
        {
          "name": "",
          "type": "uint256"
        }
      ],
      "payable": false,
      "stateMutability": "view",
      "type": "function"
    },
    {
      "constant": true,
      "inputs": [],
      "name": "symbol",
      "outputs": [
        {
          "name": "",
          "type": "string"
        }
      ],
      "payable": false,
      "stateMutability": "view",
      "type": "function"
    },
    {
      "constant": true,
      "inputs": [],
      "name": "HashData",
      "outputs": [
        {
          "name": "",
          "type": "string"
        }
      ],
      "payable": false,
      "stateMutability": "view",
      "type": "function"
    },
    {
      "constant": false,
      "inputs": [
        {
          "name": "to",
          "type": "address"
        },
        {
          "name": "approved",
          "type": "bool"
        }
      ],
      "name": "setApprovalForAll",
      "outputs": [],
      "payable": false,
      "stateMutability": "nonpayable",
      "type": "function"
    },
    {
      "constant": false,
      "inputs": [
        {
          "name": "from",
          "type": "address"
        },
        {
          "name": "to",
          "type": "address"
        },
        {
          "name": "tokenId",
          "type": "uint256"
        },
        {
          "name": "_data",
          "type": "bytes"
        }
      ],
      "name": "safeTransferFrom",
      "outputs": [],
      "payable": false,
      "stateMutability": "nonpayable",
      "type": "function"
    },
    {
      "constant": true,
      "inputs": [
        {
          "name": "tokenId",
          "type": "uint256"
        }
      ],
      "name": "tokenURI",
      "outputs": [
        {
          "name": "",
          "type": "string"
        }
      ],
      "payable": false,
      "stateMutability": "view",
      "type": "function"
    },
    {
      "constant": true,
      "inputs": [
        {
          "name": "owner",
          "type": "address"
        },
        {
          "name": "operator",
          "type": "address"
        }
      ],
      "name": "isApprovedForAll",
      "outputs": [
        {
          "name": "",
          "type": "bool"
        }
      ],
      "payable": false,
      "stateMutability": "view",
      "type": "function"
    },
    {
      "constant": true,
      "inputs": [
        {
          "name": "",
          "type": "uint256"
        }
      ],
      "name": "Star",
      "outputs": [
        {
          "name": "",
          "type": "uint256"
        }
      ],
      "payable": false,
      "stateMutability": "view",
      "type": "function"
    },
    {
      "constant": true,
      "inputs": [
        {
          "name": "",
          "type": "uint256"
        }
      ],
      "name": "TokenDetail",
      "outputs": [
        {
          "name": "",
          "type": "address"
        }
      ],
      "payable": false,
      "stateMutability": "view",
      "type": "function"
    },
    {
      "constant": true,
      "inputs": [
        {
          "name": "",
          "type": "uint256"
        }
      ],
      "name": "Role",
      "outputs": [
        {
          "name": "",
          "type": "string"
        }
      ],
      "payable": false,
      "stateMutability": "view",
      "type": "function"
    },
    {
      "inputs": [],
      "payable": false,
      "stateMutability": "nonpayable",
      "type": "constructor"
    },
    {
      "anonymous": false,
      "inputs": [
        {
          "indexed": true,
          "name": "from",
          "type": "address"
        },
        {
          "indexed": true,
          "name": "to",
          "type": "address"
        },
        {
          "indexed": true,
          "name": "tokenId",
          "type": "uint256"
        }
      ],
      "name": "Transfer",
      "type": "event"
    },
    {
      "anonymous": false,
      "inputs": [
        {
          "indexed": true,
          "name": "owner",
          "type": "address"
        },
        {
          "indexed": true,
          "name": "approved",
          "type": "address"
        },
        {
          "indexed": true,
          "name": "tokenId",
          "type": "uint256"
        }
      ],
      "name": "Approval",
      "type": "event"
    },
    {
      "anonymous": false,
      "inputs": [
        {
          "indexed": true,
          "name": "owner",
          "type": "address"
        },
        {
          "indexed": true,
          "name": "operator",
          "type": "address"
        },
        {
          "indexed": false,
          "name": "approved",
          "type": "bool"
        }
      ],
      "name": "ApprovalForAll",
      "type": "event"
    },
    {
      "constant": false,
      "inputs": [
        {
          "name": "petId",
          "type": "uint256"
        }
      ],
      "name": "adopt",
      "outputs": [
        {
          "name": "",
          "type": "uint256"
        }
      ],
      "payable": false,
      "stateMutability": "nonpayable",
      "type": "function"
    },
    {
      "constant": true,
      "inputs": [],
      "name": "getAdopters",
      "outputs": [
        {
          "name": "",
          "type": "address[16]"
        }
      ],
      "payable": false,
      "stateMutability": "view",
      "type": "function"
    },
    {
      "constant": true,
      "inputs": [
        {
          "name": "tokenID",
          "type": "uint256"
        }
      ],
      "name": "get_Role",
      "outputs": [
        {
          "name": "",
          "type": "string"
        }
      ],
      "payable": false,
      "stateMutability": "view",
      "type": "function"
    },
    {
      "constant": false,
      "inputs": [
        {
          "name": "tokenID",
          "type": "uint256"
        },
        {
          "name": "role",
          "type": "string"
        }
      ],
      "name": "set_Role",
      "outputs": [],
      "payable": false,
      "stateMutability": "nonpayable",
      "type": "function"
    },
    {
      "constant": true,
      "inputs": [
        {
          "name": "tokenID",
          "type": "uint256"
        }
      ],
      "name": "get_Token_Star",
      "outputs": [
        {
          "name": "",
          "type": "string"
        }
      ],
      "payable": false,
      "stateMutability": "view",
      "type": "function"
    },
    {
      "constant": false,
      "inputs": [
        {
          "name": "tokenID",
          "type": "uint256"
        },
        {
          "name": "token_star",
          "type": "string"
        }
      ],
      "name": "set_Token_Star",
      "outputs": [],
      "payable": false,
      "stateMutability": "nonpayable",
      "type": "function"
    },
    {
      "constant": false,
      "inputs": [
        {
          "name": "a",
          "type": "string"
        }
      ],
      "name": "set_Achievement",
      "outputs": [],
      "payable": false,
      "stateMutability": "nonpayable",
      "type": "function"
    },
    {
      "constant": false,
      "inputs": [
        {
          "name": "t",
          "type": "string"
        }
      ],
      "name": "set_Target",
      "outputs": [],
      "payable": false,
      "stateMutability": "nonpayable",
      "type": "function"
    },
    {
      "constant": false,
      "inputs": [
        {
          "name": "s",
          "type": "uint256"
        }
      ],
      "name": "set_Star",
      "outputs": [],
      "payable": false,
      "stateMutability": "nonpayable",
      "type": "function"
    },
    {
      "constant": false,
      "inputs": [
        {
          "name": "h",
          "type": "string"
        }
      ],
      "name": "set_HashData",
      "outputs": [],
      "payable": false,
      "stateMutability": "nonpayable",
      "type": "function"
    },
    {
      "constant": false,
      "inputs": [
        {
          "name": "token_address",
          "type": "address"
        }
      ],
      "name": "set_TokenDetail",
      "outputs": [],
      "payable": false,
      "stateMutability": "nonpayable",
      "type": "function"
    },
    {
      "constant": true,
      "inputs": [],
      "name": "get_Achievement",
      "outputs": [
        {
          "name": "",
          "type": "string"
        }
      ],
      "payable": false,
      "stateMutability": "view",
      "type": "function"
    },
    {
      "constant": true,
      "inputs": [],
      "name": "get_Target",
      "outputs": [
        {
          "name": "",
          "type": "string"
        }
      ],
      "payable": false,
      "stateMutability": "view",
      "type": "function"
    },
    {
      "constant": true,
      "inputs": [],
      "name": "get_Star",
      "outputs": [
        {
          "name": "",
          "type": "uint256"
        }
      ],
      "payable": false,
      "stateMutability": "view",
      "type": "function"
    },
    {
      "constant": true,
      "inputs": [],
      "name": "get_HashData",
      "outputs": [
        {
          "name": "",
          "type": "string"
        }
      ],
      "payable": false,
      "stateMutability": "view",
      "type": "function"
    },
    {
      "constant": true,
      "inputs": [
        {
          "name": "number",
          "type": "uint256"
        }
      ],
      "name": "get_TokenDetail",
      "outputs": [
        {
          "name": "",
          "type": "address"
        }
      ],
      "payable": false,
      "stateMutability": "view",
      "type": "function"
    },
    {
      "constant": true,
      "inputs": [],
      "name": "get_Author",
      "outputs": [
        {
          "name": "",
          "type": "address"
        }
      ],
      "payable": false,
      "stateMutability": "view",
      "type": "function"
    },
    {
      "constant": true,
      "inputs": [
        {
          "name": "",
          "type": "address"
        }
      ],
      "name": "is_authorized_user",
      "outputs": [
        {
          "name": "",
          "type": "bool"
        }
      ],
      "payable": false,
      "stateMutability": "view",
      "type": "function"
    }
  ],
  "bytecode": "0x60806040523480156200001157600080fd5b506040805190810160405280600481526020017f554e4956000000000000000000000000000000000000000000000000000000008152506040805190810160405280600581526020017f554e4956320000000000000000000000000000000000000000000000000000008152508181620000bd6301ffc9a77c01000000000000000000000000000000000000000000000000000000000262000210640100000000026401000000009004565b620000fa6380ac58cd7c01000000000000000000000000000000000000000000000000000000000262000210640100000000026401000000009004565b6200013763780e9d637c01000000000000000000000000000000000000000000000000000000000262000210640100000000026401000000009004565b81600990805190602001906200014f92919062000635565b5080600a90805190602001906200016892919062000635565b50620001a6635b5e139f7c01000000000000000000000000000000000000000000000000000000000262000210640100000000026401000000009004565b50505050620001da735fc7eb7c5c6e093ec42ea859760dddb1375425056001620002ce640100000000026401000000009004565b6200020a73abcf086b7c477d3c39d452f1a792f6c8fd8038ed6002620002ce640100000000026401000000009004565b620006e4565b63ffffffff7c010000000000000000000000000000000000000000000000000000000002817bffffffffffffffffffffffffffffffffffffffffffffffffffffffff1916141515156200026257600080fd5b6001600080837bffffffffffffffffffffffffffffffffffffffffffffffffffffffff19167bffffffffffffffffffffffffffffffffffffffffffffffffffffffff1916815260200190815260200160002060006101000a81548160ff02191690831515021790555050565b620002ee8282620003276401000000000262003426176401000000009004565b6200030982826200049a640100000000026401000000009004565b620003238162000561640100000000026401000000009004565b5050565b600073ffffffffffffffffffffffffffffffffffffffff168273ffffffffffffffffffffffffffffffffffffffff16141515156200036457600080fd5b6200037e81620005ad640100000000026401000000009004565b1515156200038b57600080fd5b816001600083815260200190815260200160002060006101000a81548173ffffffffffffffffffffffffffffffffffffffff021916908373ffffffffffffffffffffffffffffffffffffffff1602179055506200043a600360008473ffffffffffffffffffffffffffffffffffffffff1673ffffffffffffffffffffffffffffffffffffffff1681526020019081526020016000206200061f64010000000002620032f9176401000000009004565b808273ffffffffffffffffffffffffffffffffffffffff16600073ffffffffffffffffffffffffffffffffffffffff167fddf252ad1be2c89b69c2b068fc378daa952ba7f163c4a11628f55a4df523b3ef60405160405180910390a45050565b600560008373ffffffffffffffffffffffffffffffffffffffff1673ffffffffffffffffffffffffffffffffffffffff168152602001908152602001600020805490506006600083815260200190815260200160002081905550600560008373ffffffffffffffffffffffffffffffffffffffff1673ffffffffffffffffffffffffffffffffffffffff1681526020019081526020016000208190806001815401808255809150509060018203906000526020600020016000909192909190915055505050565b6007805490506008600083815260200190815260200160002081905550600781908060018154018082558091505090600182039060005260206000200160009091929091909150555050565b6000806001600084815260200190815260200160002060009054906101000a900473ffffffffffffffffffffffffffffffffffffffff169050600073ffffffffffffffffffffffffffffffffffffffff168173ffffffffffffffffffffffffffffffffffffffff161415915050919050565b6001816000016000828254019250508190555050565b828054600181600116156101000203166002900490600052602060002090601f016020900481019282601f106200067857805160ff1916838001178555620006a9565b82800160010185558215620006a9579182015b82811115620006a85782518255916020019190600101906200068b565b5b509050620006b89190620006bc565b5090565b620006e191905b80821115620006dd576000816000905550600101620006c3565b5090565b90565b61359c80620006f46000396000f3fe608060405260043610610204576000357c0100000000000000000000000000000000000000000000000000000000900463ffffffff16806301ffc9a71461020957806306fdde031461027b578063081812fc1461030b578063095ea7b3146103865780631251f972146103e157806317fd92d51461043257806318160ddd1461045d5780631aa6f00e146104885780631f5fbd011461053c57806323b872dd146105f05780632f745c591461066b57806339af217e146106da5780633de4eb171461076a5780634105f558146107bd57806342842e0e1461088557806343ae80d3146109005780634f6ccce71461097b5780634fe6f55f146109ca5780636352211e14610a5a5780636748790714610ad557806370a0823114610b65578063770b6eb814610bca5780638588b2c514610c9c57806390c1063214610ceb57806391577e4e14610db357806395d89b4114610dee578063991ffe3314610e7e5780639ee3c8fd14610f0e5780639fb4f8f114610f65578063a22cb46514610ff5578063b88d4fde14611052578063bbf6797c14611164578063c87b56dd146111f4578063cf359a08146112a8578063d135a35514611311578063dbc2d282146113d9578063e985e9c5146114ab578063edee9f0114611534578063f029bed314611583578063f7efddca146115fe578063fa027eca146116b2578063fed79f111461172d575b600080fd5b34801561021557600080fd5b506102616004803603602081101561022c57600080fd5b8101908080357bffffffffffffffffffffffffffffffffffffffffffffffffffffffff191690602001909291905050506117e1565b604051808215151515815260200191505060405180910390f35b34801561028757600080fd5b50610290611848565b6040518080602001828103825283818151815260200191508051906020019080838360005b838110156102d05780820151818401526020810190506102b5565b50505050905090810190601f1680156102fd5780820380516001836020036101000a031916815260200191505b509250505060405180910390f35b34801561031757600080fd5b506103446004803603602081101561032e57600080fd5b81019080803590602001909291905050506118ea565b604051808273ffffffffffffffffffffffffffffffffffffffff1673ffffffffffffffffffffffffffffffffffffffff16815260200191505060405180910390f35b34801561039257600080fd5b506103df600480360360408110156103a957600080fd5b81019080803573ffffffffffffffffffffffffffffffffffffffff1690602001909291908035906020019092919050505061193b565b005b3480156103ed57600080fd5b506104306004803603602081101561040457600080fd5b81019080803573ffffffffffffffffffffffffffffffffffffffff169060200190929190505050611a80565b005b34801561043e57600080fd5b50610447611ae9565b6040518082815260200191505060405180910390f35b34801561046957600080fd5b50610472611b46565b6040518082815260200191505060405180910390f35b34801561049457600080fd5b506104c1600480360360208110156104ab57600080fd5b8101908080359060200190929190505050611b53565b6040518080602001828103825283818151815260200191508051906020019080838360005b838110156105015780820151818401526020810190506104e6565b50505050905090810190601f16801561052e5780820380516001836020036101000a031916815260200191505b509250505060405180910390f35b34801561054857600080fd5b506105756004803603602081101561055f57600080fd5b8101908080359060200190929190505050611c0d565b6040518080602001828103825283818151815260200191508051906020019080838360005b838110156105b557808201518184015260208101905061059a565b50505050905090810190601f1680156105e25780820380516001836020036101000a031916815260200191505b509250505060405180910390f35b3480156105fc57600080fd5b506106696004803603606081101561061357600080fd5b81019080803573ffffffffffffffffffffffffffffffffffffffff169060200190929190803573ffffffffffffffffffffffffffffffffffffffff16906020019092919080359060200190929190505050611cbd565b005b34801561067757600080fd5b506106c46004803603604081101561068e57600080fd5b81019080803573ffffffffffffffffffffffffffffffffffffffff16906020019092919080359060200190929190505050611ce2565b6040518082815260200191505060405180910390f35b3480156106e657600080fd5b506106ef611d59565b6040518080602001828103825283818151815260200191508051906020019080838360005b8381101561072f578082015181840152602081019050610714565b50505050905090810190601f16801561075c5780820380516001836020036101000a031916815260200191505b509250505060405180910390f35b34801561077657600080fd5b5061077f611df7565b6040518082601060200280838360005b838110156107aa57808201518184015260208101905061078f565b5050505090500191505060405180910390f35b3480156107c957600080fd5b50610883600480360360208110156107e057600080fd5b81019080803590602001906401000000008111156107fd57600080fd5b82018360208201111561080f57600080fd5b8035906020019184600183028401116401000000008311171561083157600080fd5b91908080601f016020809104026020016040519081016040528093929190818152602001838380828437600081840152601f19601f820116905080830192505050505050509192919290505050611e78565b005b34801561089157600080fd5b506108fe600480360360608110156108a857600080fd5b81019080803573ffffffffffffffffffffffffffffffffffffffff169060200190929190803573ffffffffffffffffffffffffffffffffffffffff16906020019092919080359060200190929190505050611ea1565b005b34801561090c57600080fd5b506109396004803603602081101561092357600080fd5b8101908080359060200190929190505050611ec2565b604051808273ffffffffffffffffffffffffffffffffffffffff1673ffffffffffffffffffffffffffffffffffffffff16815260200191505060405180910390f35b34801561098757600080fd5b506109b46004803603602081101561099e57600080fd5b8101908080359060200190929190505050611ef7565b6040518082815260200191505060405180910390f35b3480156109d657600080fd5b506109df611f2f565b6040518080602001828103825283818151815260200191508051906020019080838360005b83811015610a1f578082015181840152602081019050610a04565b50505050905090810190601f168015610a4c5780820380516001836020036101000a031916815260200191505b509250505060405180910390f35b348015610a6657600080fd5b50610a9360048036036020811015610a7d57600080fd5b8101908080359060200190929190505050611fcd565b604051808273ffffffffffffffffffffffffffffffffffffffff1673ffffffffffffffffffffffffffffffffffffffff16815260200191505060405180910390f35b348015610ae157600080fd5b50610aea61204b565b6040518080602001828103825283818151815260200191508051906020019080838360005b83811015610b2a578082015181840152602081019050610b0f565b50505050905090810190601f168015610b575780820380516001836020036101000a031916815260200191505b509250505060405180910390f35b348015610b7157600080fd5b50610bb460048036036020811015610b8857600080fd5b81019080803573ffffffffffffffffffffffffffffffffffffffff1690602001909291905050506120ed565b6040518082815260200191505060405180910390f35b348015610bd657600080fd5b50610c9a60048036036040811015610bed57600080fd5b810190808035906020019092919080359060200190640100000000811115610c1457600080fd5b820183602082011115610c2657600080fd5b80359060200191846001830284011164010000000083111715610c4857600080fd5b91908080601f016020809104026020016040519081016040528093929190818152602001838380828437600081840152601f19601f820116905080830192505050505050509192919290505050612178565b005b348015610ca857600080fd5b50610cd560048036036020811015610cbf57600080fd5b81019080803590602001909291905050506121b3565b6040518082815260200191505060405180910390f35b348015610cf757600080fd5b50610db160048036036020811015610d0e57600080fd5b8101908080359060200190640100000000811115610d2b57600080fd5b820183602082011115610d3d57600080fd5b80359060200191846001830284011164010000000083111715610d5f57600080fd5b91908080601f016020809104026020016040519081016040528093929190818152602001838380828437600081840152601f19601f820116905080830192505050505050509192919290505050612228565b005b348015610dbf57600080fd5b50610dec60048036036020811015610dd657600080fd5b8101908080359060200190929190505050612251565b005b348015610dfa57600080fd5b50610e03612298565b6040518080602001828103825283818151815260200191508051906020019080838360005b83811015610e43578082015181840152602081019050610e28565b50505050905090810190601f168015610e705780820380516001836020036101000a031916815260200191505b509250505060405180910390f35b348015610e8a57600080fd5b50610e9361233a565b6040518080602001828103825283818151815260200191508051906020019080838360005b83811015610ed3578082015181840152602081019050610eb8565b50505050905090810190601f168015610f005780820380516001836020036101000a031916815260200191505b509250505060405180910390f35b348015610f1a57600080fd5b50610f236123d8565b604051808273ffffffffffffffffffffffffffffffffffffffff1673ffffffffffffffffffffffffffffffffffffffff16815260200191505060405180910390f35b348015610f7157600080fd5b50610f7a612402565b6040518080602001828103825283818151815260200191508051906020019080838360005b83811015610fba578082015181840152602081019050610f9f565b50505050905090810190601f168015610fe75780820380516001836020036101000a031916815260200191505b509250505060405180910390f35b34801561100157600080fd5b506110506004803603604081101561101857600080fd5b81019080803573ffffffffffffffffffffffffffffffffffffffff1690602001909291908035151590602001909291905050506124a4565b005b34801561105e57600080fd5b506111626004803603608081101561107557600080fd5b81019080803573ffffffffffffffffffffffffffffffffffffffff169060200190929190803573ffffffffffffffffffffffffffffffffffffffff16906020019092919080359060200190929190803590602001906401000000008111156110dc57600080fd5b8201836020820111156110ee57600080fd5b8035906020019184600183028401116401000000008311171561111057600080fd5b91908080601f016020809104026020016040519081016040528093929190818152602001838380828437600081840152601f19601f8201169050808301925050505050505091929192905050506125e0565b005b34801561117057600080fd5b50611179612608565b6040518080602001828103825283818151815260200191508051906020019080838360005b838110156111b957808201518184015260208101905061119e565b50505050905090810190601f1680156111e65780820380516001836020036101000a031916815260200191505b509250505060405180910390f35b34801561120057600080fd5b5061122d6004803603602081101561121757600080fd5b81019080803590602001909291905050506126aa565b6040518080602001828103825283818151815260200191508051906020019080838360005b8381101561126d578082015181840152602081019050611252565b50505050905090810190601f16801561129a5780820380516001836020036101000a031916815260200191505b509250505060405180910390f35b3480156112b457600080fd5b506112f7600480360360208110156112cb57600080fd5b81019080803573ffffffffffffffffffffffffffffffffffffffff169060200190929190505050612773565b604051808215151515815260200191505060405180910390f35b34801561131d57600080fd5b506113d76004803603602081101561133457600080fd5b810190808035906020019064010000000081111561135157600080fd5b82018360208201111561136357600080fd5b8035906020019184600183028401116401000000008311171561138557600080fd5b91908080601f016020809104026020016040519081016040528093929190818152602001838380828437600081840152601f19601f82011690508083019250505050505050919291929050505061277e565b005b3480156113e557600080fd5b506114a9600480360360408110156113fc57600080fd5b81019080803590602001909291908035906020019064010000000081111561142357600080fd5b82018360208201111561143557600080fd5b8035906020019184600183028401116401000000008311171561145757600080fd5b91908080601f016020809104026020016040519081016040528093929190818152602001838380828437600081840152601f19601f820116905080830192505050505050509192919290505050612798565b005b3480156114b757600080fd5b5061151a600480360360408110156114ce57600080fd5b81019080803573ffffffffffffffffffffffffffffffffffffffff169060200190929190803573ffffffffffffffffffffffffffffffffffffffff1690602001909291905050506127d3565b604051808215151515815260200191505060405180910390f35b34801561154057600080fd5b5061156d6004803603602081101561155757600080fd5b8101908080359060200190929190505050612867565b6040518082815260200191505060405180910390f35b34801561158f57600080fd5b506115bc600480360360208110156115a657600080fd5b810190808035906020019092919050505061288a565b604051808273ffffffffffffffffffffffffffffffffffffffff1673ffffffffffffffffffffffffffffffffffffffff16815260200191505060405180910390f35b34801561160a57600080fd5b506116376004803603602081101561162157600080fd5b81019080803590602001909291905050506128c8565b6040518080602001828103825283818151815260200191508051906020019080838360005b8381101561167757808201518184015260208101905061165c565b50505050905090810190601f1680156116a45780820380516001836020036101000a031916815260200191505b509250505060405180910390f35b3480156116be57600080fd5b506116eb600480360360208110156116d557600080fd5b8101908080359060200190929190505050612978565b604051808273ffffffffffffffffffffffffffffffffffffffff1673ffffffffffffffffffffffffffffffffffffffff16815260200191505060405180910390f35b34801561173957600080fd5b506117666004803603602081101561175057600080fd5b81019080803590602001909291905050506129bb565b6040518080602001828103825283818151815260200191508051906020019080838360005b838110156117a657808201518184015260208101905061178b565b50505050905090810190601f1680156117d35780820380516001836020036101000a031916815260200191505b509250505060405180910390f35b6000806000837bffffffffffffffffffffffffffffffffffffffffffffffffffffffff19167bffffffffffffffffffffffffffffffffffffffffffffffffffffffff1916815260200190815260200160002060009054906101000a900460ff169050919050565b606060098054600181600116156101000203166002900480601f0160208091040260200160405190810160405280929190818152602001828054600181600116156101000203166002900480156118e05780601f106118b5576101008083540402835291602001916118e0565b820191906000526020600020905b8154815290600101906020018083116118c357829003601f168201915b5050505050905090565b60006118f582612a75565b151561190057600080fd5b6002600083815260200190815260200160002060009054906101000a900473ffffffffffffffffffffffffffffffffffffffff169050919050565b600061194682611fcd565b90508073ffffffffffffffffffffffffffffffffffffffff168373ffffffffffffffffffffffffffffffffffffffff161415151561198357600080fd5b8073ffffffffffffffffffffffffffffffffffffffff163373ffffffffffffffffffffffffffffffffffffffff1614806119c357506119c281336127d3565b5b15156119ce57600080fd5b826002600084815260200190815260200160002060006101000a81548173ffffffffffffffffffffffffffffffffffffffff021916908373ffffffffffffffffffffffffffffffffffffffff160217905550818373ffffffffffffffffffffffffffffffffffffffff168273ffffffffffffffffffffffffffffffffffffffff167f8c5be1e5ebec7d5bd14f71427d1e84f3dd0314c0f7b2291e5b200ac8c7c3b92560405160405180910390a4505050565b60108190806001815401808255809150509060018203906000526020600020016000909192909190916101000a81548173ffffffffffffffffffffffffffffffffffffffff021916908373ffffffffffffffffffffffffffffffffffffffff1602179055505050565b6000806000905060008090505b600e80549050811015611b2e57600e81815481101515611b1257fe5b9060005260206000200154820191508080600101915050611af6565b50600e8054905081811515611b3f57fe5b0491505090565b6000600780549050905090565b606080601360008481526020019081526020016000208054600181600116156101000203166002900480601f016020809104026020016040519081016040528092919081815260200182805460018160011615610100020316600290048015611bfd5780601f10611bd257610100808354040283529160200191611bfd565b820191906000526020600020905b815481529060010190602001808311611be057829003601f168201915b5050505050905080915050919050565b60136020528060005260406000206000915090508054600181600116156101000203166002900480601f016020809104026020016040519081016040528092919081815260200182805460018160011615610100020316600290048015611cb55780601f10611c8a57610100808354040283529160200191611cb5565b820191906000526020600020905b815481529060010190602001808311611c9857829003601f168201915b505050505081565b611cc73382612ae7565b1515611cd257600080fd5b611cdd838383612b7c565b505050565b6000611ced836120ed565b82101515611cfa57600080fd5b600560008473ffffffffffffffffffffffffffffffffffffffff1673ffffffffffffffffffffffffffffffffffffffff16815260200190815260200160002082815481101515611d4657fe5b9060005260206000200154905092915050565b600c8054600181600116156101000203166002900480601f016020809104026020016040519081016040528092919081815260200182805460018160011615610100020316600290048015611def5780601f10611dc457610100808354040283529160200191611def565b820191906000526020600020905b815481529060010190602001808311611dd257829003601f168201915b505050505081565b611dff613331565b6014601080602002604051908101604052809291908260108015611e6e576020028201915b8160009054906101000a900473ffffffffffffffffffffffffffffffffffffffff1673ffffffffffffffffffffffffffffffffffffffff1681526020019060010190808311611e24575b5050505050905090565b611e8133612773565b15611e9e5780600c9080519060200190611e9c929190613355565b505b50565b611ebd83838360206040519081016040528060008152506125e0565b505050565b601481601081101515611ed157fe5b016000915054906101000a900473ffffffffffffffffffffffffffffffffffffffff1681565b6000611f01611b46565b82101515611f0e57600080fd5b600782815481101515611f1d57fe5b90600052602060002001549050919050565b600d8054600181600116156101000203166002900480601f016020809104026020016040519081016040528092919081815260200182805460018160011615610100020316600290048015611fc55780601f10611f9a57610100808354040283529160200191611fc5565b820191906000526020600020905b815481529060010190602001808311611fa857829003601f168201915b505050505081565b6000806001600084815260200190815260200160002060009054906101000a900473ffffffffffffffffffffffffffffffffffffffff169050600073ffffffffffffffffffffffffffffffffffffffff168173ffffffffffffffffffffffffffffffffffffffff161415151561204257600080fd5b80915050919050565b6060600d8054600181600116156101000203166002900480601f0160208091040260200160405190810160405280929190818152602001828054600181600116156101000203166002900480156120e35780601f106120b8576101008083540402835291602001916120e3565b820191906000526020600020905b8154815290600101906020018083116120c657829003601f168201915b5050505050905090565b60008073ffffffffffffffffffffffffffffffffffffffff168273ffffffffffffffffffffffffffffffffffffffff161415151561212a57600080fd5b612171600360008473ffffffffffffffffffffffffffffffffffffffff1673ffffffffffffffffffffffffffffffffffffffff168152602001908152602001600020612ba0565b9050919050565b61218133612773565b156121af57806013600084815260200190815260200160002090805190602001906121ad929190613355565b505b5050565b60008082101580156121c65750600f8211155b15156121d157600080fd5b336014836010811015156121e157fe5b0160006101000a81548173ffffffffffffffffffffffffffffffffffffffff021916908373ffffffffffffffffffffffffffffffffffffffff160217905550819050919050565b61223133612773565b1561224e5780600d908051906020019061224c929190613355565b505b50565b80600111158015612263575060058111155b1561229557600e8190806001815401808255809150509060018203906000526020600020016000909192909190915055505b50565b6060600a8054600181600116156101000203166002900480601f0160208091040260200160405190810160405280929190818152602001828054600181600116156101000203166002900480156123305780601f1061230557610100808354040283529160200191612330565b820191906000526020600020905b81548152906001019060200180831161231357829003601f168201915b5050505050905090565b600f8054600181600116156101000203166002900480601f0160208091040260200160405190810160405280929190818152602001828054600181600116156101000203166002900480156123d05780601f106123a5576101008083540402835291602001916123d0565b820191906000526020600020905b8154815290600101906020018083116123b357829003601f168201915b505050505081565b6000601160009054906101000a900473ffffffffffffffffffffffffffffffffffffffff16905090565b6060600f8054600181600116156101000203166002900480601f01602080910402602001604051908101604052809291908181526020018280546001816001161561010002031660029004801561249a5780601f1061246f5761010080835404028352916020019161249a565b820191906000526020600020905b81548152906001019060200180831161247d57829003601f168201915b5050505050905090565b3373ffffffffffffffffffffffffffffffffffffffff168273ffffffffffffffffffffffffffffffffffffffff16141515156124df57600080fd5b80600460003373ffffffffffffffffffffffffffffffffffffffff1673ffffffffffffffffffffffffffffffffffffffff16815260200190815260200160002060008473ffffffffffffffffffffffffffffffffffffffff1673ffffffffffffffffffffffffffffffffffffffff16815260200190815260200160002060006101000a81548160ff0219169083151502179055508173ffffffffffffffffffffffffffffffffffffffff163373ffffffffffffffffffffffffffffffffffffffff167f17307eab39ab6107e8899845ad3d59bd9653f200f220920489ca2b5937696c3183604051808215151515815260200191505060405180910390a35050565b6125eb848484611cbd565b6125f784848484612bae565b151561260257600080fd5b50505050565b6060600c8054600181600116156101000203166002900480601f0160208091040260200160405190810160405280929190818152602001828054600181600116156101000203166002900480156126a05780601f10612675576101008083540402835291602001916126a0565b820191906000526020600020905b81548152906001019060200180831161268357829003601f168201915b5050505050905090565b60606126b582612a75565b15156126c057600080fd5b600b60008381526020019081526020016000208054600181600116156101000203166002900480601f0160208091040260200160405190810160405280929190818152602001828054600181600116156101000203166002900480156127675780601f1061273c57610100808354040283529160200191612767565b820191906000526020600020905b81548152906001019060200180831161274a57829003601f168201915b50505050509050919050565b600060019050919050565b80600f9080519060200190612794929190613355565b5050565b6127a133612773565b156127cf57806012600084815260200190815260200160002090805190602001906127cd929190613355565b505b5050565b6000600460008473ffffffffffffffffffffffffffffffffffffffff1673ffffffffffffffffffffffffffffffffffffffff16815260200190815260200160002060008373ffffffffffffffffffffffffffffffffffffffff1673ffffffffffffffffffffffffffffffffffffffff16815260200190815260200160002060009054906101000a900460ff16905092915050565b600e8181548110151561287657fe5b906000526020600020016000915090505481565b60108181548110151561289957fe5b906000526020600020016000915054906101000a900473ffffffffffffffffffffffffffffffffffffffff1681565b60126020528060005260406000206000915090508054600181600116156101000203166002900480601f0160208091040260200160405190810160405280929190818152602001828054600181600116156101000203166002900480156129705780601f1061294557610100808354040283529160200191612970565b820191906000526020600020905b81548152906001019060200180831161295357829003601f168201915b505050505081565b600060108281548110151561298957fe5b9060005260206000200160009054906101000a900473ffffffffffffffffffffffffffffffffffffffff169050919050565b606080601260008481526020019081526020016000208054600181600116156101000203166002900480601f016020809104026020016040519081016040528092919081815260200182805460018160011615610100020316600290048015612a655780601f10612a3a57610100808354040283529160200191612a65565b820191906000526020600020905b815481529060010190602001808311612a4857829003601f168201915b5050505050905080915050919050565b6000806001600084815260200190815260200160002060009054906101000a900473ffffffffffffffffffffffffffffffffffffffff169050600073ffffffffffffffffffffffffffffffffffffffff168173ffffffffffffffffffffffffffffffffffffffff161415915050919050565b600080612af383611fcd565b90508073ffffffffffffffffffffffffffffffffffffffff168473ffffffffffffffffffffffffffffffffffffffff161480612b6257508373ffffffffffffffffffffffffffffffffffffffff16612b4a846118ea565b73ffffffffffffffffffffffffffffffffffffffff16145b80612b735750612b7281856127d3565b5b91505092915050565b612b87838383612dd1565b612b918382612f98565b612b9b828261313c565b505050565b600081600001549050919050565b6000612bcf8473ffffffffffffffffffffffffffffffffffffffff16613203565b1515612bde5760019050612dc9565b60008473ffffffffffffffffffffffffffffffffffffffff1663150b7a02338887876040518563ffffffff167c0100000000000000000000000000000000000000000000000000000000028152600401808573ffffffffffffffffffffffffffffffffffffffff1673ffffffffffffffffffffffffffffffffffffffff1681526020018473ffffffffffffffffffffffffffffffffffffffff1673ffffffffffffffffffffffffffffffffffffffff16815260200183815260200180602001828103825283818151815260200191508051906020019080838360005b83811015612cd5578082015181840152602081019050612cba565b50505050905090810190601f168015612d025780820380516001836020036101000a031916815260200191505b5095505050505050602060405180830381600087803b158015612d2457600080fd5b505af1158015612d38573d6000803e3d6000fd5b505050506040513d6020811015612d4e57600080fd5b8101908080519060200190929190505050905063150b7a027c0100000000000000000000000000000000000000000000000000000000027bffffffffffffffffffffffffffffffffffffffffffffffffffffffff1916817bffffffffffffffffffffffffffffffffffffffffffffffffffffffff1916149150505b949350505050565b8273ffffffffffffffffffffffffffffffffffffffff16612df182611fcd565b73ffffffffffffffffffffffffffffffffffffffff16141515612e1357600080fd5b600073ffffffffffffffffffffffffffffffffffffffff168273ffffffffffffffffffffffffffffffffffffffff1614151515612e4f57600080fd5b612e5881613216565b612e9f600360008573ffffffffffffffffffffffffffffffffffffffff1673ffffffffffffffffffffffffffffffffffffffff1681526020019081526020016000206132d6565b612ee6600360008473ffffffffffffffffffffffffffffffffffffffff1673ffffffffffffffffffffffffffffffffffffffff1681526020019081526020016000206132f9565b816001600083815260200190815260200160002060006101000a81548173ffffffffffffffffffffffffffffffffffffffff021916908373ffffffffffffffffffffffffffffffffffffffff160217905550808273ffffffffffffffffffffffffffffffffffffffff168473ffffffffffffffffffffffffffffffffffffffff167fddf252ad1be2c89b69c2b068fc378daa952ba7f163c4a11628f55a4df523b3ef60405160405180910390a4505050565b6000612ff06001600560008673ffffffffffffffffffffffffffffffffffffffff1673ffffffffffffffffffffffffffffffffffffffff1681526020019081526020016000208054905061330f90919063ffffffff16565b905060006006600084815260200190815260200160002054905081811415156130e3576000600560008673ffffffffffffffffffffffffffffffffffffffff1673ffffffffffffffffffffffffffffffffffffffff1681526020019081526020016000208381548110151561306157fe5b9060005260206000200154905080600560008773ffffffffffffffffffffffffffffffffffffffff1673ffffffffffffffffffffffffffffffffffffffff168152602001908152602001600020838154811015156130bb57fe5b9060005260206000200181905550816006600083815260200190815260200160002081905550505b600560008573ffffffffffffffffffffffffffffffffffffffff1673ffffffffffffffffffffffffffffffffffffffff16815260200190815260200160002080548091906001900361313591906133d5565b5050505050565b600560008373ffffffffffffffffffffffffffffffffffffffff1673ffffffffffffffffffffffffffffffffffffffff168152602001908152602001600020805490506006600083815260200190815260200160002081905550600560008373ffffffffffffffffffffffffffffffffffffffff1673ffffffffffffffffffffffffffffffffffffffff1681526020019081526020016000208190806001815401808255809150509060018203906000526020600020016000909192909190915055505050565b600080823b905060008111915050919050565b600073ffffffffffffffffffffffffffffffffffffffff166002600083815260200190815260200160002060009054906101000a900473ffffffffffffffffffffffffffffffffffffffff1673ffffffffffffffffffffffffffffffffffffffff161415156132d35760006002600083815260200190815260200160002060006101000a81548173ffffffffffffffffffffffffffffffffffffffff021916908373ffffffffffffffffffffffffffffffffffffffff1602179055505b50565b6132ee6001826000015461330f90919063ffffffff16565b816000018190555050565b6001816000016000828254019250508190555050565b600082821115151561332057600080fd5b600082840390508091505092915050565b61020060405190810160405280601090602082028038833980820191505090505090565b828054600181600116156101000203166002900490600052602060002090601f016020900481019282601f1061339657805160ff19168380011785556133c4565b828001600101855582156133c4579182015b828111156133c35782518255916020019190600101906133a8565b5b5090506133d19190613401565b5090565b8154818355818111156133fc578183600052602060002091820191016133fb9190613401565b5b505050565b61342391905b8082111561341f576000816000905550600101613407565b5090565b90565b600073ffffffffffffffffffffffffffffffffffffffff168273ffffffffffffffffffffffffffffffffffffffff161415151561346257600080fd5b61346b81612a75565b15151561347757600080fd5b816001600083815260200190815260200160002060006101000a81548173ffffffffffffffffffffffffffffffffffffffff021916908373ffffffffffffffffffffffffffffffffffffffff160217905550613510600360008473ffffffffffffffffffffffffffffffffffffffff1673ffffffffffffffffffffffffffffffffffffffff1681526020019081526020016000206132f9565b808273ffffffffffffffffffffffffffffffffffffffff16600073ffffffffffffffffffffffffffffffffffffffff167fddf252ad1be2c89b69c2b068fc378daa952ba7f163c4a11628f55a4df523b3ef60405160405180910390a4505056fea165627a7a723058202692b5e8209a3d1986f7db191d6af9788bc548462a2106d3f8fee2f69a73605e0029",
  "source": "pragma solidity ^0.5.0;\n\nimport  \"./ERC721Full.sol\";\n\n//Base---ERC721---\n//---contract---\n//Achievement \n//Target \n//Star\n//HashData\n//TokenDetail\n//Author(ERC725ID)\n//\n\n//---Token---\n//From\n//ToERC721ERC721\n//Role()\n//Token_Star\n//\n\ncontract RightConnect_ERC721 is ERC721Full  {\n    string public Achievement;\n    string public Target;\n    uint[] public Star;\n    string public HashData;\n    address[] public TokenDetail;\n    address private Author;\n\n    mapping (uint256 => string) public Role;\n    mapping (uint256 => string) public Token_Star;\n\n    address[16] public adopters;\n\n    function adopt(uint petId) public returns (uint) {\n        require(petId >= 0 && petId <= 15);\n\n        adopters[petId] = msg.sender;\n\n        return petId;\n    }\n\n    function getAdopters() public view returns (address[16] memory) {\n        return adopters;\n    }\n\n\n\n    function get_Role(uint256 tokenID) public view returns(string memory){\n        string memory role  = Role[tokenID];\n        return role;\n    }\n\n    function set_Role(uint256 tokenID , string memory role) public {\n        if (is_authorized_user(msg.sender)) Role[tokenID]  = role;\n    }\n\n\n    function get_Token_Star(uint256 tokenID) public view returns(string memory){\n        string memory tstar  = Token_Star[tokenID];\n        return tstar;\n    }\n\n    function set_Token_Star(uint256 tokenID , string memory token_star) public {\n        if (is_authorized_user(msg.sender)) Token_Star[tokenID]  = token_star;\n    }\n\n\n    function set_Achievement(string memory a)  public  {\n        if (is_authorized_user(msg.sender)) Achievement = a;\n    }\n    \n    function set_Target(string memory t)  public  {\n        if (is_authorized_user(msg.sender)) Target = t;\n    }\n\n       function set_Star(uint s)  public  {\n        if ( 1 <= s && s <= 5  ) Star.push(s);\n    } \n\n       function set_HashData(string memory h)  public  {\n        HashData = h;\n    } \n    \n       function set_TokenDetail(address token_address)  public  {\n        TokenDetail.push(token_address);\n    } \n\n\n       function get_Achievement()  public view returns (string memory) {\n        return Achievement;\n    } \n\n       function get_Target()  public  view returns (string memory) {\n        return Target;\n    } \n\n\n    function get_Star()  public view returns (uint) {\n        uint sum = 0;\n        for (uint i = 0; i < Star.length; i++){\n            sum += Star[i];\n        }\n        return sum/Star.length;\n    }\n    \n\n       function get_HashData()  public view returns (string memory) {\n        return HashData;\n    } \n\n       function get_TokenDetail(uint256 number)  public view returns (address) {\n        return TokenDetail[number];\n    } \n\n       function get_Author()  public view returns (address) {\n        return Author;\n    } \n    \n      function is_authorized_user(address) public view returns (bool){\n          //ToDo:ERC725true\n          return true;\n      }\n\n\n\n    constructor() ERC721Full(\"UNIV\", \"UNIV2\") public\n    {\n//        _mint(msg.sender, tokenId);\n//        _setTokenURI(tokenId, tokenURI);\n//        if (is_authorized_user(author)) Author = author;\n     //   _mint(0xe3EeE18A530acc43D2F30946a5FF7E6eB9732f10, 1);\n     //   _mint(0xd986d7E95663d5dE8CACda286431DB4313567c4c , 2);\n     //   _mint(0xE35B827177398D8d2FBA304d9cF53bc8fC1573B7 , 3);\n        _mint(0x5Fc7EB7c5c6e093Ec42ea859760dddb137542505 , 1);\n        _mint(0xAbCf086b7c477d3c39d452F1A792f6C8Fd8038ED , 2);\n    }\n}\n",
  "sourcePath": "/Users/matsuokadaisuke/Desktop/2019Hackathon/RightConnect/contracts/Adoption.sol",
  "compiler": {
    "name": "solc",
    "version": "0.5.0+commit.1d4f565a.Emscripten.clang"
  },
  "schemaVersion": "3.0.2",
  "updatedAt": "2019-02-17T02:57:28.826Z",
  "devdoc": {
    "methods": {
      "approve(address,uint256)": {
        "details": "Approves another address to transfer the given token ID\r The zero address indicates there is no approved address.\r There can only be one approved address per token at a given time.\r Can only be called by the token owner or an approved operator.\r",
        "params": {
          "to": "address to be approved for the given token ID\r",
          "tokenId": "uint256 ID of the token to be approved\r"
        }
      },
      "balanceOf(address)": {
        "details": "Gets the balance of the specified address\r",
        "params": {
          "owner": "address to query the balance of\r"
        },
        "return": "uint256 representing the amount owned by the passed address\r"
      },
      "getApproved(uint256)": {
        "details": "Gets the approved address for a token ID, or zero if no address set\r Reverts if the token ID does not exist.\r",
        "params": {
          "tokenId": "uint256 ID of the token to query the approval of\r"
        },
        "return": "address currently approved for the given token ID\r"
      },
      "isApprovedForAll(address,address)": {
        "details": "Tells whether an operator is approved by a given owner\r",
        "params": {
          "operator": "operator address which you want to query the approval of\r",
          "owner": "owner address which you want to query the approval of\r"
        },
        "return": "bool whether the given operator is approved by the given owner\r"
      },
      "name()": {
        "details": "Gets the token name\r",
        "return": "string representing the token name\r"
      },
      "ownerOf(uint256)": {
        "details": "Gets the owner of the specified token ID\r",
        "params": {
          "tokenId": "uint256 ID of the token to query the owner of\r"
        },
        "return": "address currently marked as the owner of the given token ID\r"
      },
      "safeTransferFrom(address,address,uint256)": {
        "details": "Safely transfers the ownership of a given token ID to another address\r If the target address is a contract, it must implement `onERC721Received`,\r which is called upon a safe transfer, and return the magic value\r `bytes4(keccak256(\"onERC721Received(address,address,uint256,bytes)\"))`; otherwise,\r the transfer is reverted.\r Requires the msg.sender to be the owner, approved, or operator\r",
        "params": {
          "from": "current owner of the token\r",
          "to": "address to receive the ownership of the given token ID\r",
          "tokenId": "uint256 ID of the token to be transferred\r"
        }
      },
      "safeTransferFrom(address,address,uint256,bytes)": {
        "details": "Safely transfers the ownership of a given token ID to another address\r If the target address is a contract, it must implement `onERC721Received`,\r which is called upon a safe transfer, and return the magic value\r `bytes4(keccak256(\"onERC721Received(address,address,uint256,bytes)\"))`; otherwise,\r the transfer is reverted.\r Requires the msg.sender to be the owner, approved, or operator\r",
        "params": {
          "_data": "bytes data to send along with a safe transfer check\r",
          "from": "current owner of the token\r",
          "to": "address to receive the ownership of the given token ID\r",
          "tokenId": "uint256 ID of the token to be transferred\r"
        }
      },
      "setApprovalForAll(address,bool)": {
        "details": "Sets or unsets the approval of a given operator\r An operator is allowed to transfer all tokens of the sender on their behalf\r",
        "params": {
          "approved": "representing the status of the approval to be set\r",
          "to": "operator address to set the approval\r"
        }
      },
      "supportsInterface(bytes4)": {
        "details": "implement supportsInterface(bytes4) using a lookup table\r"
      },
      "symbol()": {
        "details": "Gets the token symbol\r",
        "return": "string representing the token symbol\r"
      },
      "tokenByIndex(uint256)": {
        "details": "Gets the token ID at a given index of all the tokens in this contract\r Reverts if the index is greater or equal to the total number of tokens\r",
        "params": {
          "index": "uint256 representing the index to be accessed of the tokens list\r"
        },
        "return": "uint256 token ID at the given index of the tokens list\r"
      },
      "tokenOfOwnerByIndex(address,uint256)": {
        "details": "Gets the token ID at a given index of the tokens list of the requested owner\r",
        "params": {
          "index": "uint256 representing the index to be accessed of the requested tokens list\r",
          "owner": "address owning the tokens list to be accessed\r"
        },
        "return": "uint256 token ID at the given index of the tokens list owned by the requested address\r"
      },
      "tokenURI(uint256)": {
        "details": "Returns an URI for a given token ID\r Throws if the token ID does not exist. May return an empty string.\r",
        "params": {
          "tokenId": "uint256 ID of the token to query\r"
        }
      },
      "totalSupply()": {
        "details": "Gets the total amount of tokens stored by the contract\r",
        "return": "uint256 representing the total amount of tokens\r"
      },
      "transferFrom(address,address,uint256)": {
        "details": "Transfers the ownership of a given token ID to another address\r Usage of this method is discouraged, use `safeTransferFrom` whenever possible\r Requires the msg.sender to be the owner, approved, or operator\r",
        "params": {
          "from": "current owner of the token\r",
          "to": "address to receive the ownership of the given token ID\r",
          "tokenId": "uint256 ID of the token to be transferred\r"
        }
      }
    }
  },
  "userdoc": {
    "methods": {}
  }
}